{
  "contractName": "SongContract",
  "abi": [
    {
      "anonymous": false,
      "inputs": [
        {
          "indexed": false,
          "internalType": "uint256",
          "name": "songId",
          "type": "uint256"
        },
        {
          "indexed": true,
          "internalType": "address",
          "name": "renter",
          "type": "address"
        },
        {
          "indexed": false,
          "internalType": "uint256",
          "name": "amountPaid",
          "type": "uint256"
        }
      ],
      "name": "SongRented",
      "type": "event"
    },
    {
      "anonymous": false,
      "inputs": [
        {
          "indexed": false,
          "internalType": "uint256",
          "name": "songId",
          "type": "uint256"
        },
        {
          "indexed": false,
          "internalType": "string",
          "name": "title",
          "type": "string"
        },
        {
          "indexed": true,
          "internalType": "address",
          "name": "owner",
          "type": "address"
        }
      ],
      "name": "SongUploaded",
      "type": "event"
    },
    {
      "inputs": [],
      "name": "songCount",
      "outputs": [
        {
          "internalType": "uint256",
          "name": "",
          "type": "uint256"
        }
      ],
      "stateMutability": "view",
      "type": "function",
      "constant": true
    },
    {
      "inputs": [
        {
          "internalType": "string",
          "name": "_title",
          "type": "string"
        },
        {
          "internalType": "string",
          "name": "_ipfsHash",
          "type": "string"
        },
        {
          "internalType": "uint256",
          "name": "_rentPrice",
          "type": "uint256"
        }
      ],
      "name": "uploadSong",
      "outputs": [],
      "stateMutability": "nonpayable",
      "type": "function"
    },
    {
      "inputs": [
        {
          "internalType": "uint256",
          "name": "_songId",
          "type": "uint256"
        }
      ],
      "name": "rentSong",
      "outputs": [],
      "stateMutability": "payable",
      "type": "function",
      "payable": true
    },
    {
      "inputs": [],
      "name": "getAllSongs",
      "outputs": [
        {
          "components": [
            {
              "internalType": "string",
              "name": "title",
              "type": "string"
            },
            {
              "internalType": "string",
              "name": "ipfsHash",
              "type": "string"
            },
            {
              "internalType": "address payable",
              "name": "owner",
              "type": "address"
            },
            {
              "internalType": "uint256",
              "name": "rentPrice",
              "type": "uint256"
            },
            {
              "internalType": "address[]",
              "name": "rentedBy",
              "type": "address[]"
            }
          ],
          "internalType": "struct SongContract.Song[]",
          "name": "",
          "type": "tuple[]"
        }
      ],
      "stateMutability": "view",
      "type": "function",
      "constant": true
    },
    {
      "inputs": [
        {
          "internalType": "uint256",
          "name": "_songId",
          "type": "uint256"
        }
      ],
      "name": "getSongRenters",
      "outputs": [
        {
          "internalType": "address[]",
          "name": "",
          "type": "address[]"
        }
      ],
      "stateMutability": "view",
      "type": "function",
      "constant": true
    },
    {
      "inputs": [],
      "name": "getMySongs",
      "outputs": [
        {
          "components": [
            {
              "internalType": "string",
              "name": "title",
              "type": "string"
            },
            {
              "internalType": "string",
              "name": "ipfsHash",
              "type": "string"
            },
            {
              "internalType": "address payable",
              "name": "owner",
              "type": "address"
            },
            {
              "internalType": "uint256",
              "name": "rentPrice",
              "type": "uint256"
            },
            {
              "internalType": "address[]",
              "name": "rentedBy",
              "type": "address[]"
            }
          ],
          "internalType": "struct SongContract.Song[]",
          "name": "",
          "type": "tuple[]"
        }
      ],
      "stateMutability": "view",
      "type": "function",
      "constant": true
    },
    {
      "inputs": [],
      "name": "getOwnerSongs",
      "outputs": [
        {
          "components": [
            {
              "internalType": "string",
              "name": "title",
              "type": "string"
            },
            {
              "internalType": "string",
              "name": "ipfsHash",
              "type": "string"
            },
            {
              "internalType": "address payable",
              "name": "owner",
              "type": "address"
            },
            {
              "internalType": "uint256",
              "name": "rentPrice",
              "type": "uint256"
            },
            {
              "internalType": "address[]",
              "name": "rentedBy",
              "type": "address[]"
            }
          ],
          "internalType": "struct SongContract.Song[]",
          "name": "",
          "type": "tuple[]"
        }
      ],
      "stateMutability": "view",
      "type": "function",
      "constant": true
    },
    {
      "inputs": [
        {
          "internalType": "uint256",
          "name": "_songId",
          "type": "uint256"
        }
      ],
      "name": "getSongOwner",
      "outputs": [
        {
          "internalType": "address",
          "name": "",
          "type": "address"
        }
      ],
      "stateMutability": "view",
      "type": "function",
      "constant": true
    }
  ],
  "bytecode": "0x6080604052600060035534801561001557600080fd5b506122b6806100256000396000f3fe60806040526004361061007a5760003560e01c8063841759fc1161004e578063841759fc1461013b578063931a889b146101785780639a08afc4146101a3578063c7c403f1146101ce5761007a565b8062b8d61b1461007f57806329ef6862146100a85780637327af49146100d35780637a1cd46014610110575b600080fd5b34801561008b57600080fd5b506100a660048036038101906100a19190611641565b6101ea565b005b3480156100b457600080fd5b506100bd610517565b6040516100ca91906119b1565b60405180910390f35b3480156100df57600080fd5b506100fa60048036038101906100f591906119d3565b6107f7565b6040516101079190611a6f565b60405180910390f35b34801561011c57600080fd5b50610125610983565b60405161013291906119b1565b60405180910390f35b34801561014757600080fd5b50610162600480360381019061015d91906119d3565b610cff565b60405161016f9190611aa0565b60405180910390f35b34801561018457600080fd5b5061018d610d8c565b60405161019a9190611aca565b60405180910390f35b3480156101af57600080fd5b506101b8610d92565b6040516101c591906119b1565b60405180910390f35b6101e860048036038101906101e391906119d3565b61110e565b005b600083511161022e576040517f08c379a000000000000000000000000000000000000000000000000000000000815260040161022590611b42565b60405180910390fd5b6000825111610272576040517f08c379a000000000000000000000000000000000000000000000000000000000815260040161026990611bae565b60405180910390fd5b600081116102b5576040517f08c379a00000000000000000000000000000000000000000000000000000000081526004016102ac90611c40565b60405180910390fd5b600360008154809291906102c890611c8f565b91905055506040518060a001604052808481526020018381526020013373ffffffffffffffffffffffffffffffffffffffff168152602001828152602001600067ffffffffffffffff811115610321576103206114e0565b5b60405190808252806020026020018201604052801561034f5781602001602082028036833780820191505090505b508152506000806003548152602001908152602001600020600082015181600001908161037c9190611ee3565b5060208201518160010190816103929190611ee3565b5060408201518160020160006101000a81548173ffffffffffffffffffffffffffffffffffffffff021916908373ffffffffffffffffffffffffffffffffffffffff1602179055506060820151816003015560808201518160040190805190602001906104009291906113c5565b50905050600160003373ffffffffffffffffffffffffffffffffffffffff1673ffffffffffffffffffffffffffffffffffffffff16815260200190815260200160002060035490806001815401808255809150506001900390600052602060002001600090919091909150553360026000600354815260200190815260200160002060006101000a81548173ffffffffffffffffffffffffffffffffffffffff021916908373ffffffffffffffffffffffffffffffffffffffff1602179055503373ffffffffffffffffffffffffffffffffffffffff167f0f51527b8481d2e813c53b79e08afe926eaf5556758625c2736fdc26ae21cbe36003548560405161050a929190611fee565b60405180910390a2505050565b6060600060035467ffffffffffffffff811115610537576105366114e0565b5b60405190808252806020026020018201604052801561057057816020015b61055d61144f565b8152602001906001900390816105555790505b5090506000600190505b60035481116107ef576000808281526020019081526020016000206040518060a00160405290816000820180546105b090611d06565b80601f01602080910402602001604051908101604052809291908181526020018280546105dc90611d06565b80156106295780601f106105fe57610100808354040283529160200191610629565b820191906000526020600020905b81548152906001019060200180831161060c57829003601f168201915b5050505050815260200160018201805461064290611d06565b80601f016020809104026020016040519081016040528092919081815260200182805461066e90611d06565b80156106bb5780601f10610690576101008083540402835291602001916106bb565b820191906000526020600020905b81548152906001019060200180831161069e57829003601f168201915b505050505081526020016002820160009054906101000a900473ffffffffffffffffffffffffffffffffffffffff1673ffffffffffffffffffffffffffffffffffffffff1673ffffffffffffffffffffffffffffffffffffffff16815260200160038201548152602001600482018054806020026020016040519081016040528092919081815260200182805480156107a957602002820191906000526020600020905b8160009054906101000a900473ffffffffffffffffffffffffffffffffffffffff1673ffffffffffffffffffffffffffffffffffffffff168152602001906001019080831161075f575b505050505081525050826001836107c0919061201e565b815181106107d1576107d0612052565b5b602002602001018190525080806107e790611c8f565b91505061057a565b508091505090565b606060008211801561080b57506003548211155b61084a576040517f08c379a0000000000000000000000000000000000000000000000000000000008152600401610841906120cd565b60405180910390fd5b600080600084815260200190815260200160002090508060020160009054906101000a900473ffffffffffffffffffffffffffffffffffffffff1673ffffffffffffffffffffffffffffffffffffffff163373ffffffffffffffffffffffffffffffffffffffff16146108f2576040517f08c379a00000000000000000000000000000000000000000000000000000000081526004016108e99061215f565b60405180910390fd5b8060040180548060200260200160405190810160405280929190818152602001828054801561097657602002820191906000526020600020905b8160009054906101000a900473ffffffffffffffffffffffffffffffffffffffff1673ffffffffffffffffffffffffffffffffffffffff168152602001906001019080831161092c575b5050505050915050919050565b60606000600160003373ffffffffffffffffffffffffffffffffffffffff1673ffffffffffffffffffffffffffffffffffffffff168152602001908152602001600020805480602002602001604051908101604052809291908181526020018280548015610a1057602002820191906000526020600020905b8154815260200190600101908083116109fc575b505050505090506000815167ffffffffffffffff811115610a3457610a336114e0565b5b604051908082528060200260200182016040528015610a6d57816020015b610a5a61144f565b815260200190600190039081610a525790505b50905060005b8251811015610cf657600080848381518110610a9257610a91612052565b5b602002602001015181526020019081526020016000206040518060a0016040529081600082018054610ac390611d06565b80601f0160208091040260200160405190810160405280929190818152602001828054610aef90611d06565b8015610b3c5780601f10610b1157610100808354040283529160200191610b3c565b820191906000526020600020905b815481529060010190602001808311610b1f57829003601f168201915b50505050508152602001600182018054610b5590611d06565b80601f0160208091040260200160405190810160405280929190818152602001828054610b8190611d06565b8015610bce5780601f10610ba357610100808354040283529160200191610bce565b820191906000526020600020905b815481529060010190602001808311610bb157829003601f168201915b505050505081526020016002820160009054906101000a900473ffffffffffffffffffffffffffffffffffffffff1673ffffffffffffffffffffffffffffffffffffffff1673ffffffffffffffffffffffffffffffffffffffff1681526020016003820154815260200160048201805480602002602001604051908101604052809291908181526020018280548015610cbc57602002820191906000526020600020905b8160009054906101000a900473ffffffffffffffffffffffffffffffffffffffff1673ffffffffffffffffffffffffffffffffffffffff1681526020019060010190808311610c72575b505050505081525050828281518110610cd857610cd7612052565b5b60200260200101819052508080610cee90611c8f565b915050610a73565b50809250505090565b60008082118015610d1257506003548211155b610d51576040517f08c379a0000000000000000000000000000000000000000000000000000000008152600401610d48906120cd565b60405180910390fd5b6002600083815260200190815260200160002060009054906101000a900473ffffffffffffffffffffffffffffffffffffffff169050919050565b60035481565b60606000600160003373ffffffffffffffffffffffffffffffffffffffff1673ffffffffffffffffffffffffffffffffffffffff168152602001908152602001600020805480602002602001604051908101604052809291908181526020018280548015610e1f57602002820191906000526020600020905b815481526020019060010190808311610e0b575b505050505090506000815167ffffffffffffffff811115610e4357610e426114e0565b5b604051908082528060200260200182016040528015610e7c57816020015b610e6961144f565b815260200190600190039081610e615790505b50905060005b825181101561110557600080848381518110610ea157610ea0612052565b5b602002602001015181526020019081526020016000206040518060a0016040529081600082018054610ed290611d06565b80601f0160208091040260200160405190810160405280929190818152602001828054610efe90611d06565b8015610f4b5780601f10610f2057610100808354040283529160200191610f4b565b820191906000526020600020905b815481529060010190602001808311610f2e57829003601f168201915b50505050508152602001600182018054610f6490611d06565b80601f0160208091040260200160405190810160405280929190818152602001828054610f9090611d06565b8015610fdd5780601f10610fb257610100808354040283529160200191610fdd565b820191906000526020600020905b815481529060010190602001808311610fc057829003601f168201915b505050505081526020016002820160009054906101000a900473ffffffffffffffffffffffffffffffffffffffff1673ffffffffffffffffffffffffffffffffffffffff1673ffffffffffffffffffffffffffffffffffffffff16815260200160038201548152602001600482018054806020026020016040519081016040528092919081815260200182805480156110cb57602002820191906000526020600020905b8160009054906101000a900473ffffffffffffffffffffffffffffffffffffffff1673ffffffffffffffffffffffffffffffffffffffff1681526020019060010190808311611081575b5050505050815250508282815181106110e7576110e6612052565b5b602002602001018190525080806110fd90611c8f565b915050610e82565b50809250505090565b60008111801561112057506003548111155b61115f576040517f08c379a0000000000000000000000000000000000000000000000000000000008152600401611156906120cd565b60405180910390fd5b6000806000838152602001908152602001600020905080600301543410156111bc576040517f08c379a00000000000000000000000000000000000000000000000000000000081526004016111b3906121cb565b60405180910390fd5b8060020160009054906101000a900473ffffffffffffffffffffffffffffffffffffffff1673ffffffffffffffffffffffffffffffffffffffff166108fc349081150290604051600060405180830381858888f19350505050158015611226573d6000803e3d6000fd5b506000805b82600401805490508110156112c9573373ffffffffffffffffffffffffffffffffffffffff1683600401828154811061126757611266612052565b5b9060005260206000200160009054906101000a900473ffffffffffffffffffffffffffffffffffffffff1673ffffffffffffffffffffffffffffffffffffffff16036112b657600191506112c9565b80806112c190611c8f565b91505061122b565b50801561130b576040517f08c379a000000000000000000000000000000000000000000000000000000000815260040161130290612237565b60405180910390fd5b81600401339080600181540180825580915050600190039060005260206000200160009091909190916101000a81548173ffffffffffffffffffffffffffffffffffffffff021916908373ffffffffffffffffffffffffffffffffffffffff1602179055503373ffffffffffffffffffffffffffffffffffffffff167f97316d76e27bbcf6f90ac564e7bde465da889add1a3741bc2f193fda6e7ffcc484346040516113b8929190612257565b60405180910390a2505050565b82805482825590600052602060002090810192821561143e579160200282015b8281111561143d5782518260006101000a81548173ffffffffffffffffffffffffffffffffffffffff021916908373ffffffffffffffffffffffffffffffffffffffff160217905550916020019190600101906113e5565b5b50905061144b9190611494565b5090565b6040518060a001604052806060815260200160608152602001600073ffffffffffffffffffffffffffffffffffffffff16815260200160008152602001606081525090565b5b808211156114ad576000816000905550600101611495565b5090565b6000604051905090565b600080fd5b600080fd5b600080fd5b600080fd5b6000601f19601f8301169050919050565b7f4e487b7100000000000000000000000000000000000000000000000000000000600052604160045260246000fd5b611518826114cf565b810181811067ffffffffffffffff82111715611537576115366114e0565b5b80604052505050565b600061154a6114b1565b9050611556828261150f565b919050565b600067ffffffffffffffff821115611576576115756114e0565b5b61157f826114cf565b9050602081019050919050565b82818337600083830152505050565b60006115ae6115a98461155b565b611540565b9050828152602081018484840111156115ca576115c96114ca565b5b6115d584828561158c565b509392505050565b600082601f8301126115f2576115f16114c5565b5b813561160284826020860161159b565b91505092915050565b6000819050919050565b61161e8161160b565b811461162957600080fd5b50565b60008135905061163b81611615565b92915050565b60008060006060848603121561165a576116596114bb565b5b600084013567ffffffffffffffff811115611678576116776114c0565b5b611684868287016115dd565b935050602084013567ffffffffffffffff8111156116a5576116a46114c0565b5b6116b1868287016115dd565b92505060406116c28682870161162c565b9150509250925092565b600081519050919050565b600082825260208201905092915050565b6000819050602082019050919050565b600081519050919050565b600082825260208201905092915050565b60005b83811015611732578082015181840152602081019050611717565b60008484015250505050565b6000611749826116f8565b6117538185611703565b9350611763818560208601611714565b61176c816114cf565b840191505092915050565b600073ffffffffffffffffffffffffffffffffffffffff82169050919050565b60006117a282611777565b9050919050565b6117b281611797565b82525050565b6117c18161160b565b82525050565b600081519050919050565b600082825260208201905092915050565b6000819050602082019050919050565b60006117fe82611777565b9050919050565b61180e816117f3565b82525050565b60006118208383611805565b60208301905092915050565b6000602082019050919050565b6000611844826117c7565b61184e81856117d2565b9350611859836117e3565b8060005b8381101561188a5781516118718882611814565b975061187c8361182c565b92505060018101905061185d565b5085935050505092915050565b600060a08301600083015184820360008601526118b4828261173e565b915050602083015184820360208601526118ce828261173e565b91505060408301516118e360408601826117a9565b5060608301516118f660608601826117b8565b506080830151848203608086015261190e8282611839565b9150508091505092915050565b60006119278383611897565b905092915050565b6000602082019050919050565b6000611947826116cc565b61195181856116d7565b935083602082028501611963856116e8565b8060005b8581101561199f5784840389528151611980858261191b565b945061198b8361192f565b925060208a01995050600181019050611967565b50829750879550505050505092915050565b600060208201905081810360008301526119cb818461193c565b905092915050565b6000602082840312156119e9576119e86114bb565b5b60006119f78482850161162c565b91505092915050565b600082825260208201905092915050565b6000611a1c826117c7565b611a268185611a00565b9350611a31836117e3565b8060005b83811015611a62578151611a498882611814565b9750611a548361182c565b925050600181019050611a35565b5085935050505092915050565b60006020820190508181036000830152611a898184611a11565b905092915050565b611a9a816117f3565b82525050565b6000602082019050611ab56000830184611a91565b92915050565b611ac48161160b565b82525050565b6000602082019050611adf6000830184611abb565b92915050565b600082825260208201905092915050565b7f536f6e67207469746c6520697320726571756972656400000000000000000000600082015250565b6000611b2c601683611ae5565b9150611b3782611af6565b602082019050919050565b60006020820190508181036000830152611b5b81611b1f565b9050919050565b7f4950465320686173682069732072657175697265640000000000000000000000600082015250565b6000611b98601583611ae5565b9150611ba382611b62565b602082019050919050565b60006020820190508181036000830152611bc781611b8b565b9050919050565b7f52656e74207072696365206d7573742062652067726561746572207468616e2060008201527f7a65726f00000000000000000000000000000000000000000000000000000000602082015250565b6000611c2a602483611ae5565b9150611c3582611bce565b604082019050919050565b60006020820190508181036000830152611c5981611c1d565b9050919050565b7f4e487b7100000000000000000000000000000000000000000000000000000000600052601160045260246000fd5b6000611c9a8261160b565b91507fffffffffffffffffffffffffffffffffffffffffffffffffffffffffffffffff8203611ccc57611ccb611c60565b5b600182019050919050565b7f4e487b7100000000000000000000000000000000000000000000000000000000600052602260045260246000fd5b60006002820490506001821680611d1e57607f821691505b602082108103611d3157611d30611cd7565b5b50919050565b60008190508160005260206000209050919050565b60006020601f8301049050919050565b600082821b905092915050565b600060088302611d997fffffffffffffffffffffffffffffffffffffffffffffffffffffffffffffffff82611d5c565b611da38683611d5c565b95508019841693508086168417925050509392505050565b6000819050919050565b6000611de0611ddb611dd68461160b565b611dbb565b61160b565b9050919050565b6000819050919050565b611dfa83611dc5565b611e0e611e0682611de7565b848454611d69565b825550505050565b600090565b611e23611e16565b611e2e818484611df1565b505050565b5b81811015611e5257611e47600082611e1b565b600181019050611e34565b5050565b601f821115611e9757611e6881611d37565b611e7184611d4c565b81016020851015611e80578190505b611e94611e8c85611d4c565b830182611e33565b50505b505050565b600082821c905092915050565b6000611eba60001984600802611e9c565b1980831691505092915050565b6000611ed38383611ea9565b9150826002028217905092915050565b611eec826116f8565b67ffffffffffffffff811115611f0557611f046114e0565b5b611f0f8254611d06565b611f1a828285611e56565b600060209050601f831160018114611f4d5760008415611f3b578287015190505b611f458582611ec7565b865550611fad565b601f198416611f5b86611d37565b60005b82811015611f8357848901518255600182019150602085019450602081019050611f5e565b86831015611fa05784890151611f9c601f891682611ea9565b8355505b6001600288020188555050505b505050505050565b6000611fc0826116f8565b611fca8185611ae5565b9350611fda818560208601611714565b611fe3816114cf565b840191505092915050565b60006040820190506120036000830185611abb565b81810360208301526120158184611fb5565b90509392505050565b60006120298261160b565b91506120348361160b565b925082820390508181111561204c5761204b611c60565b5b92915050565b7f4e487b7100000000000000000000000000000000000000000000000000000000600052603260045260246000fd5b7f496e76616c696420736f6e672049440000000000000000000000000000000000600082015250565b60006120b7600f83611ae5565b91506120c282612081565b602082019050919050565b600060208201905081810360008301526120e6816120aa565b9050919050565b7f4f6e6c7920746865206f776e65722063616e2076696577207468652072656e7460008201527f6572730000000000000000000000000000000000000000000000000000000000602082015250565b6000612149602383611ae5565b9150612154826120ed565b604082019050919050565b600060208201905081810360008301526121788161213c565b9050919050565b7f496e73756666696369656e742072656e74207061796d656e7400000000000000600082015250565b60006121b5601983611ae5565b91506121c08261217f565b602082019050919050565b600060208201905081810360008301526121e4816121a8565b9050919050565b7f596f7520616c72656164792072656e746564207468697320736f6e6700000000600082015250565b6000612221601c83611ae5565b915061222c826121eb565b602082019050919050565b6000602082019050818103600083015261225081612214565b9050919050565b600060408201905061226c6000830185611abb565b6122796020830184611abb565b939250505056fea264697066735822122025d4d0887e571517199786d773b5c9872f1580f2a7df491008720324123480ac64736f6c63430008130033",
  "immutableReferences": {},
  "source": "// SPDX-License-Identifier: MIT\r\npragma solidity ^0.8.0;\r\n\r\ncontract SongContract {\r\n    struct Song {\r\n        string title;\r\n        string ipfsHash; // IPFS hash for storing the song file off-chain\r\n        address payable owner;\r\n        uint256 rentPrice;\r\n        address[] rentedBy; // List of addresses that rented the song\r\n    }\r\n\r\n    mapping(uint256 => Song) private songs; // Store songs with unique ID\r\n    mapping(address => uint256[]) private ownerSongs; // List of song IDs owned by each artist\r\n    mapping(uint256 => address) private songToOwner; // Map songs to their owners\r\n\r\n    uint256 public songCount = 0; // Keep track of the number of songs\r\n\r\n    event SongUploaded(uint256 songId, string title, address indexed owner);\r\n    event SongRented(\r\n        uint256 songId,\r\n        address indexed renter,\r\n        uint256 amountPaid\r\n    );\r\n\r\n    // Upload a new song\r\n    function uploadSong(\r\n        string memory _title,\r\n        string memory _ipfsHash,\r\n        uint256 _rentPrice\r\n    ) public {\r\n        require(bytes(_title).length > 0, \"Song title is required\");\r\n        require(bytes(_ipfsHash).length > 0, \"IPFS hash is required\");\r\n        require(_rentPrice > 0, \"Rent price must be greater than zero\");\r\n\r\n        // Increment song count and create new song\r\n        songCount++;\r\n        songs[songCount] = Song({\r\n            title: _title,\r\n            ipfsHash: _ipfsHash,\r\n            owner: payable(msg.sender),\r\n            rentPrice: _rentPrice,\r\n            rentedBy: new address[](0) // Initialize rentedBy as an empty array\r\n        });\r\n\r\n        // Add song ID to the artist's owned songs list\r\n        ownerSongs[msg.sender].push(songCount);\r\n\r\n        // Map song ID to the song owner\r\n        songToOwner[songCount] = msg.sender;\r\n\r\n        emit SongUploaded(songCount, _title, msg.sender);\r\n    }\r\n\r\n    // Rent a song\r\n    function rentSong(uint256 _songId) public payable {\r\n        require(_songId > 0 && _songId <= songCount, \"Invalid song ID\");\r\n        Song storage song = songs[_songId];\r\n        require(msg.value >= song.rentPrice, \"Insufficient rent payment\");\r\n\r\n        // Pay the song owner\r\n        song.owner.transfer(msg.value);\r\n\r\n        // Ensure the same user can't rent the same song twice\r\n        bool alreadyRented = false;\r\n        for (uint256 i = 0; i < song.rentedBy.length; i++) {\r\n            if (song.rentedBy[i] == msg.sender) {\r\n                alreadyRented = true;\r\n                break;\r\n            }\r\n        }\r\n        require(!alreadyRented, \"You already rented this song\");\r\n\r\n        // Add the renter to the list of people who rented the song\r\n        song.rentedBy.push(msg.sender);\r\n\r\n        emit SongRented(_songId, msg.sender, msg.value);\r\n    }\r\n\r\n    // Get all songs (visible to everyone)\r\n    function getAllSongs() public view returns (Song[] memory) {\r\n        Song[] memory allSongs = new Song[](songCount);\r\n        for (uint256 i = 1; i <= songCount; i++) {\r\n            allSongs[i - 1] = songs[i];\r\n        }\r\n        return allSongs;\r\n    }\r\n\r\n    // View all the renters for a particular song (only accessible to the owner of the song)\r\n    function getSongRenters(\r\n        uint256 _songId\r\n    ) public view returns (address[] memory) {\r\n        require(_songId > 0 && _songId <= songCount, \"Invalid song ID\");\r\n        Song storage song = songs[_songId];\r\n        require(\r\n            msg.sender == song.owner,\r\n            \"Only the owner can view the renters\"\r\n        );\r\n\r\n        return song.rentedBy;\r\n    }\r\n\r\n    // Get all songs owned by the caller\r\n    function getMySongs() public view returns (Song[] memory) {\r\n        uint256[] memory songIds = ownerSongs[msg.sender];\r\n        Song[] memory mySongs = new Song[](songIds.length);\r\n        for (uint256 i = 0; i < songIds.length; i++) {\r\n            mySongs[i] = songs[songIds[i]];\r\n        }\r\n        return mySongs;\r\n    }\r\n\r\n    // Ensure only song owners can view their own list of renters (security measure)\r\n    function getOwnerSongs() public view returns (Song[] memory) {\r\n        uint256[] memory songIds = ownerSongs[msg.sender];\r\n        Song[] memory mySongs = new Song[](songIds.length);\r\n        for (uint256 i = 0; i < songIds.length; i++) {\r\n            mySongs[i] = songs[songIds[i]];\r\n        }\r\n        return mySongs;\r\n    }\r\n\r\n    // Get the owner of a specific song\r\n    function getSongOwner(uint256 _songId) public view returns (address) {\r\n        require(_songId > 0 && _songId <= songCount, \"Invalid song ID\");\r\n        return songToOwner[_songId];\r\n    }\r\n}\r\n",
  "sourcePath": "C:\\Users\\Nilanchala Panda\\Desktop\\FAMILY\\Coding\\Projects\\Testing\\Blockchain\\contracts\\SongContract.sol",
  "compiler": {
    "name": "solc",
    "version": "0.8.19+commit.7dd6d404.Emscripten.clang"
  },
  "schemaVersion": "3.4.16",
  "updatedAt": "2024-10-18T07:07:54.564Z",
  "networkType": "ethereum",
  "devdoc": {
    "kind": "dev",
    "methods": {},
    "version": 1
  },
  "userdoc": {
    "kind": "user",
    "methods": {},
    "version": 1
  }
}